:041000000BEF08F0FA
:101008004282FACF09F0FBCF0AF083ED09F008EF2E
:101018000EF00031323346343536453738394441DD
:10102800304243200000010E0101C96F0F0EC16E4E
:10103800C19AC198000E926E070E946E80908092AD
:1010480080948096CFEC0EF0BD0E0001736F010EF8
:101058000001746F84EC0AF0300E0101CA6F6CD085
:101068000FEC0FF009D05FEC0BF011D0F4EC0BF0A3
:101078000ED089EC0CF00BD00001B251440AD8B460
:10108800F8D7010AD8B4F2D7030AD8B4ECD721EEBE
:1010980069F011EE93F0140EDBCFE3FFE806FCE2F3
:1010A800800E4BEC0EF0000E0101CC6F130E010107
:1010B800CC6501D013D00101CC51010D930EF3245E
:1010C800D96E010EF420DA6EDF500101CB6F0101F9
:1010D800CB511EEC0DF00101CC2BE8D721EE7EF0B0
:1010E80011EEA8F0140EDBCFE3FFE806FCE2C00E19
:1010F8004BEC0EF0000E0101CC6F130E0101CC6514
:1011080001D013D00101CC51010DA80EF324D96EE2
:10111800010EF420DA6EDF500101CB6F0101CB51D3
:101128001EEC0DF00101CC2BE8D721EC10F00101E9
:10113800CA6F010E4BEC0EF0410E0101CA19D8A47A
:101148008FD7870ED56EF28EF28A6D0ED76E840E0B
:10115800D66E0001A451381813E10001A5513918C1
:10116800D8A40ED00001AA513C5C3D50800A000171
:10117800976F0001AB51800A00019759D8B00ED083
:1011880038500001A45D0001A551800A0001976F45
:101198003950800A00019759D8B019D00001B051D0
:1011A8000001B111D8A413D080A602D0010E01D03D
:1011B800000EFF0A0001976F00019747974797476E
:1011C800805000019719F70B9719806E808082A0D4
:1011D80007D0000E0001B16F010EB06F80968090AD
:1011E8000001A451381813E10001A5513918D8A4F9
:1011F8000ED00001AA513C5C3D50800A0001976F57
:101208000001AB51800A00019759D8B00ED0385070
:101218000001A45D0001A551800A0001976F3950B3
:10122800800A00019759D8B019D00001AE510001C9
:10123800AF11D8A413D080A602D0010E01D0000EA1
:10124800FF0A0001976F000197479747974780501B
:1012580000019719F70B9719806E808282A207D038
:10126800000E0001AF6F010EAE6F809680920001F4
:10127800A451381813E10001A5513918D8A40ED08B
:101288000001AA513C5C3D50800A0001976F0001A3
:10129800AB51800A00019759D8B00ED038500001E0
:1012A800A45D0001A551800A0001976F3950800A9A
:1012B80000019759D8B019D00001AC510001AD1107
:1012C800D8A413D080A602D0010E01D0000EFF0AC8
:1012D8000001976F00019747974797478050000193
:1012E8009719F70B9719806E808482A432D7000E65
:1012F8000001AD6F010EAC6F809680942AD706006E
:10130800E9CF0BF0EACF0CF0E1CF0DF0E2CF0EF011
:10131800D9CF0FF0DACF10F0F3CF11F0F4CF12F0ED
:10132800F6CF13F0F7CF14F0F8CF15F0F5CF16F08D
:10133800F2A4C8D0480ED76EE50ED66E010E402432
:10134800406E000E4120416E41BE2ED0415004E156
:101358003C0E405CD8A028D0000E416E000E406EB6
:10136800010E3C243C6E000E3D203D6E3DBE1CD05F
:101378003D5004E13C0E3C5CD8A016D0000E3D6EFA
:10138800000E3C6E010E3824386E000E3920396E7E
:1013980039BE0AD0395004E1180E385CD8A004D000
:1013A800000E396E000E386E38C001F039C002F0F8
:1013B800000E046E0A0E036E8DEC0EF001C01DF0D7
:1013C80002C01EF01DC001F01EC002F0000E046E27
:1013D8000A0E036E6EEC10F0011E021E014A022A6C
:1013E80038500124176E39500220186E3CC001F0A5
:1013F8003DC002F0000E046E0A0E036E8DEC0EF076
:1014080001C01FF002C020F01FC001F020C002F090
:10141800000E046E0A0E036E6EEC10F0011E021E22
:10142800014A022A3C500124196E3D5002201A6ECE
:1014380040C001F041C002F0000E046E0A0E036EB7
:101448008DEC0EF001C021F002C022F021C001F0A5
:1014580022C002F0000E046E0A0E036E6EEC10F04D
:10146800011E021E014A022A405001241B6E4150EF
:1014780002201C6E800EC6EC0FF01D508BEC0FF096
:1014880074EC0DF017508BEC0FF074EC0DF03A0E75
:1014980074EC0DF01F508BEC0FF074EC0DF019503C
:1014A8008BEC0FF074EC0DF03A0E74EC0DF021504B
:1014B8008BEC0FF074EC0DF01B508BEC0FF074EC10
:1014C8000DF0F29416C0F5FF15C0F8FF14C0F7FF31
:1014D80013C0F6FF12C0F4FF11C0F3FF10C0DAFF0B
:1014E8000FC0D9FF0EC0E2FF0DC0E1FF0CC0EAFF3C
:1014F8000BC0E9FF0AC0FBFF09C0FAFF42921100C6
:1015080020EE23F010EE77F0140EDBCFE3FFE806B1
:10151800FCE2800E4BEC0EF0000E0001906F130EF3
:101528000001906501D013D000019051010D770E94
:10153800F324D96E000EF420DA6EDF5000018C6FB0
:1015480000018C511EEC0DF00001902BE8D7C00E65
:101558004BEC0EF0000E00018F6F000E8E6F000135
:101568008FBF08D000018F5129E1060E00018E5D62
:10157800D8B024D021EC10F000018D6F00018D51FE
:101588001EEC0DF000018D514EEC0FF00001756F4F
:10159800766BD89000018E35D96E00018F35DA6EE2
:1015A80000017351D92600017451DA2275C0DEFF9B
:1015B80076C0DDFF00018E4B8F2BD1D7000120EEC6
:1015C80002F07351D9267451DA22DECF75F0DDCFDF
:1015D80076F073C0D9FF74C0DAFFDECF60F0DDCFDC
:1015E80061F0000E0001636F0A0E626F40EC10F0AC
:1015F8000001755100016025386E00017651000127
:101608006121396E000120EE06F07351D92674511C
:10161800DA22DECF75F0DDCF76F0000120EE04F09F
:101628007351D9267451DA22DECF60F0DDCF61F034
:10163800000E0001636F0A0E626F40EC10F00001AB
:101648007551000160253C6E000176510001612151
:101658003D6E000120EE0AF07351D9267451DA224A
:10166800DECF75F0DDCF76F0000120EE08F0735183
:10167800D9267451DA22DECF60F0DDCF61F0000E9A
:101688000001636F0A0E626F40EC10F000017551A3
:1016980000016025406E0001765100016121416E14
:1016A800010E0001616FF40E606FFEEC0FF0010E89
:1016B8004BEC0EF0120021EE2AF010EE75F0140E2D
:1016C800DBCFE3FFE806FCE2800E4BEC0EF0000EE9
:1016D80000018E6F130E00018E6501D013D000013A
:1016E8008E51010D750EF324D96E000EF420DA6EBA
:1016F800DF5000018A6F00018A511EEC0DF00001D5
:101708008E2BE8D7C00E4BEC0EF0000E00018D6F4B
:10171800000E8C6F00018DBF08D000018D5127E1AC
:10172800040E00018C5DD8B022D021EC10F000012D
:101738008B6F00018B511EEC0DF000018B514EECAC
:101748000FF00001736F746BD89000018C35D96E5F
:1017580000018D35DA6E980ED926000EDA2273C094
:10176800DEFF74C0DDFF00018C4B8D2BD3D798C0F2
:1017780060F099C061F0000E0001636F0A0E626F9D
:1017880040EC10F000019A51000160250001A46F9F
:1017980000019B51000161210001A56F9CC060F010
:1017A8009DC061F0000E0001636F0A0E626F40EC8D
:1017B80010F000019E51000160250001AA6F000190
:1017C8009F51000161210001AB6F010E0001616FA3
:1017D800F40E606FFEEC0FF0010E4BEC0EF01200F1
:1017E80021EE15F010EE75F0140EDBCFE3FFE806DE
:1017F800FCE2800E4BEC0EF0000E0001966F130E0B
:101808000001966501D013D000019651010D750EA7
:10181800F324D96E000EF420DA6EDF500001926FC7
:10182800000192511EEC0DF00001962BE8D7C00E76
:101838004BEC0EF0000E0001956F000E946F000146
:1018480095BF08D00001955127E1040E0001945D71
:10185800D8B022D021EC10F00001936F0001935111
:101868001EEC0DF0000193514EEC0FF00001736F68
:10187800746BD89000019435D96E00019535DA6EF5
:101888008A0ED926000EDA2273C0DEFF74C0DDFF8F
:101898000001944B952BD3D78AC060F08BC061F0C0
:1018A800000E0001636F0A0E626F40EC10F0000139
:1018B8008C51000160250001A26F00018D510001CB
:1018C80061210001A36F8EC060F08FC061F0000E2F
:1018D8000001636F0A0E626F40EC10F00001905136
:1018E800000160250001A86F0001915100016121EC
:1018F8000001A96F010E0001616FF40E606FFEEC2C
:101908000FF0010E4BEC0EF0120021EE00F010EE7D
:1019180075F0140EDBCFE3FFE806FCE2800E4BEC1B
:101928000EF0000E0001966F130E0001966501D0AF
:1019380013D000019651010D750EF324D96E000ED7
:10194800F420DA6EDF500001926F000192511EEC14
:101958000DF00001962BE8D7C00E4BEC0EF0000EF0
:101968000001956F000E946F000195BF08D000012B
:10197800955127E1040E0001945DD8B022D021ECE6
:1019880010F00001936F000193511EEC0DF000015F
:1019980093514EEC0FF00001736F746BD8900001F7
:1019A8009435D96E00019535DA6E8A0ED926000E67
:1019B800DA2273C0DEFF74C0DDFF0001944B952B63
:1019C800D3D78AC060F08BC061F0000E0001636F4E
:1019D8000A0E626F40EC10F000018C510001602586
:1019E8000001A06F00018D51000161210001A16F6C
:1019F8008EC060F08FC061F0000E0001636F0A0EA8
:101A0800626F40EC10F00001905100016025000168
:101A1800A66F00019151000161210001A76F010E1D
:101A28000001616FF40E606FFEEC0FF0010E4BECDD
:101A38000EF012000001626F838C3F0E0001616F8F
:101A4800550EE82EFED7612FFCD700F062C063F078
:101A5800000163390F0B0001636F000163510F0B25
:101A6800836E7D0E0001616FAC0EE82EFED7612FEC
:101A7800FCD7838C7D0E0001616FAC0EE82EFED77B
:101A8800612FFCD75BEC10F07D0E0001616FAC0E8E
:101A9800E82EFED7612FFCD762C063F000016351C6
:101AA8000F0B836E7D0E0001616FAC0EE82EFED722
:101AB800612FFCD7838C9C0E0001616FD70EE82E36
:101AC800FED7612FFCD700F05BEC10F09C0E0001F4
:101AD800616FD70EE82EFED7612FFCD700F01200F9
:101AE800036E838C3F0E026E550EE82EFED7022E33
:101AF800FCD700F003C004F004380F0B046E045048
:101B08000F0B836E7D0E026EAC0EE82EFED7022EF2
:101B1800FCD7838C7D0E026EAC0EE82EFED7022E0B
:101B2800FCD781EC10F07D0E026EAC0EE82EFED7CD
:101B3800022EFCD703C004F004500F0B836E7D0EF9
:101B4800026EAC0EE82EFED7022EFCD7838C9C0EBC
:101B5800026ED70EE82EFED7022EFCD700F081ECDD
:101B680010F09C0E026ED70EE82EFED7022EFCD780
:101B780000F0120053657420436F6D20442074698F
:101B88006D652068686D6D3A0053657420436F6D0C
:101B980020452074696D652068686D6D3A0053654D
:101BA8007420436F6D20462074696D652068686DE8
:101BB8006D3A00416C61726D204F666620202020CE
:101BC8002020202020202000416C61726D204F6E63
:101BD8002020202020202020202020200053746155
:101BE80072742074696D65723F205072657373203A
:101BF80041004164642074696D65723F20507265CC
:101C0800737320616E79000000EE98F01B0EEE6A87
:101C1800E806FDE100EE38F00A0EEE6AE806FDE19E
:101C28007C0EF66E1B0EF76E000EF86E01EE00F0DD
:101C380010EE93F00900F5CFEEFFE550E150FAE120
:101C4800390EF66E210EF76E000EF86E00EEB3F048
:101C580010EE15F00900F5CFEEFFE550E150FAE17E
:101C6800240EF66E210EF76E000EF86E00EE23F0CD
:101C780010EE15F00900F5CFEEFFE550E150FAE15E
:101C880042904292000EF86E000117EF08F0000132
:101C9800626F839C3F0E0001616F550EE82EFED7E0
:101CA800612FFCD700F062C063F0000163390F0BAD
:101CB8000001636F000163510F0B836E7D0E0001FD
:101CC800616FAC0EE82EFED7612FFCD75BEC10F0ED
:101CD8007D0E0001616FAC0EE82EFED7612FFCD798
:101CE80062C063F0000163510F0B836E7D0E00012B
:101CF800616FAC0EE82EFED7612FFCD75BEC10F0BD
:101D08007D0E0001616FAC0EE82EFED7612FFCD767
:101D18001200000E066E04AE06D0036C041ED8B086
:101D2800042A010E066E02AE06D0016C021ED8B05F
:101D3800022A010E061A000E086E000E076E0350E6
:101D48000410D8B41CD0010E056E04D0D890033608
:101D58000436052A04AEFAD7D89007360836035059
:101D6800015C04500258D8A005D00350015E04500D
:101D7800025A0780D89004320332052EEDD7065058
:101D8800D8B404D0076C081ED8B0082A07C001F0E0
:101D980008C002F01200000E956E000E836E839844
:101DA800839C839A000E0001666F000E656F000128
:101DB80066BF08D00001665112E1640E0001655D3E
:101DC800D8B00DD09C0E0001646FD70EE82EFED758
:101DD800642FFCD700F00001654B662BE8D7330E63
:101DE8004BEC0EF0320E4BEC0EF0280E4BEC0EF0D6
:101DF8000E0E4BEC0EF0060E4BEC0EF0010E4BECFB
:101E08000EF09C0E0001646FD70EE82EFED7642FEB
:101E1800FCD700F0120020EEB3F010EE73F0140EB1
:101E2800DBCFE3FFE806FCE2800E4BEC0EF0000E81
:101E380000018A6F130E00018A6501D013D00001DA
:101E48008A51010D730EF324D96E000EF420DA6E58
:101E5800DF500001886F000188511EEC0DF0000171
:101E68008A2BE8D7C00E4BEC0EF021EC10F00001E5
:101E7800896F000189511EEC0DF089C0B2F0010E86
:101E88000001616FF40E606FFEEC0FF0010E4BEC79
:101E98000EF012000001606F16D0010E11D0020E74
:101EA8000FD0030E0DD0040E0BD0050E09D0060E70
:101EB80007D0070E05D0080E03D0090E01D0000E7A
:101EC8000001616F21D000016051300AD8B4F7D702
:101ED800010AD8B4E2D7030AD8B4E1D7010AD8B4C2
:101EE800E0D7070AD8B4DFD7010AD8B4DED7030A87
:101EF800D8B4DDD7010AD8B4DCD70F0AD8B4DBD7F9
:101F0800010AD8B4DAD7DBD7000161511200016E9B
:101F180017D0300E13D0310E11D0320E0FD0330E31
:101F28000DD0340E0BD0350E09D0360E07D0370E33
:101F380005D0380E03D0390E01D03F0E026E20D0E6
:101F48000150000AD8B4E5D7010AD8B4E4D7030A87
:101F5800D8B4E3D7010AD8B4E2D7070AD8B4E1D78E
:101F6800010AD8B4E0D7030AD8B4DFD7010AD8B435
:101F7800DED70F0AD8B4DDD7010AD8B4DCD7DDD74D
:101F880002501200036E839C3F0E026E550EE82E1F
:101F9800FED7022EFCD700F003C004F004380F0B64
:101FA800046E04500F0B836E7D0E026EAC0EE82E8D
:101FB800FED7022EFCD781EC10F07D0E026EAC0E1F
:101FC800E82EFED7022EFCD703C004F004500F0BF6
:101FD800836E7D0E026EAC0EE82EFED7022EFCD765
:101FE80081EC10F07D0E026EAC0EE82EFED7022EAC
:101FF800FCD712000001605100016111D8B4120031
:10200800000E0001646F000E636F0CD0100E00010B
:10201800626F940EE82EFED7622FFCD700D0000125
:10202800634B642B000160510001635D0001615145
:1020380000016459D8B01200E9D71B0EF66E100ED5
:10204800F76E20EE60F0110E0900F5CFDEFFE8060E
:10205800FBE281AAFED781500F0B0001726F81BA93
:10206800FED700017251010D600EF324D96E000EE7
:10207800F420DA6EDF5012000001605100016203A3
:10208800F3CF64F0F4CF65F0000160510001630301
:10209800F350000165270001615100016203F3500C
:1020A8000001652764C060F065C061F01200838894
:1020B8007D0E0001606FAC0EE82EFED7602FFCD7B6
:1020C80083987D0E0001606FAC0EE82EFED7602F5E
:1020D800FCD7120001500302F3CF05F0F4CF06F04D
:1020E80001500402F350062602500302F35006265C
:1020F80005C001F006C002F0120083887D0E016E53
:10210800AC0EE82EFED7012EFCD783987D0E016E0B
:10211800AC0EE82EFED7012EFCD7120053657420B2
:1021280074696D652068686D6D73733A202020208E
:102138000043686F6F736520436F6D20462C452000
:062148006F7220443A0012
:020000040020DA
:08000000FFFFFFFFFFFFFFFF00
:020000040030CA
:0E00000000051F1FFF8385FF0FC00FE00F409C
:00000001FF
